{
  "contractName": "MorarableMarketContract",
  "abi": [
    {
      "anonymous": false,
      "inputs": [
        {
          "indexed": false,
          "internalType": "uint256",
          "name": "id",
          "type": "uint256"
        },
        {
          "indexed": false,
          "internalType": "uint256",
          "name": "tokenId",
          "type": "uint256"
        },
        {
          "indexed": false,
          "internalType": "address",
          "name": "tokenAddress",
          "type": "address"
        },
        {
          "indexed": false,
          "internalType": "uint256",
          "name": "askingPrice",
          "type": "uint256"
        }
      ],
      "name": "itemAdded",
      "type": "event"
    },
    {
      "anonymous": false,
      "inputs": [
        {
          "indexed": false,
          "internalType": "uint256",
          "name": "id",
          "type": "uint256"
        },
        {
          "indexed": false,
          "internalType": "address",
          "name": "buyer",
          "type": "address"
        },
        {
          "indexed": false,
          "internalType": "uint256",
          "name": "askingPrice",
          "type": "uint256"
        }
      ],
      "name": "itemSold",
      "type": "event"
    },
    {
      "inputs": [
        {
          "internalType": "uint256",
          "name": "",
          "type": "uint256"
        }
      ],
      "name": "itemsForSale",
      "outputs": [
        {
          "internalType": "uint256",
          "name": "id",
          "type": "uint256"
        },
        {
          "internalType": "address",
          "name": "tokenAddress",
          "type": "address"
        },
        {
          "internalType": "uint256",
          "name": "tokenId",
          "type": "uint256"
        },
        {
          "internalType": "address payable",
          "name": "seller",
          "type": "address"
        },
        {
          "internalType": "uint256",
          "name": "askingPrice",
          "type": "uint256"
        },
        {
          "internalType": "bool",
          "name": "isSold",
          "type": "bool"
        }
      ],
      "stateMutability": "view",
      "type": "function",
      "constant": true
    },
    {
      "inputs": [
        {
          "internalType": "uint256",
          "name": "tokenId",
          "type": "uint256"
        },
        {
          "internalType": "address",
          "name": "tokenAddress",
          "type": "address"
        },
        {
          "internalType": "uint256",
          "name": "askingPrice",
          "type": "uint256"
        }
      ],
      "name": "addItemToMarket",
      "outputs": [
        {
          "internalType": "uint256",
          "name": "",
          "type": "uint256"
        }
      ],
      "stateMutability": "nonpayable",
      "type": "function"
    },
    {
      "inputs": [
        {
          "internalType": "uint256",
          "name": "id",
          "type": "uint256"
        }
      ],
      "name": "buyItem",
      "outputs": [],
      "stateMutability": "payable",
      "type": "function",
      "payable": true
    }
  ],
  "bytecode": "0x608060405234801561001057600080fd5b50611192806100206000396000f3fe6080604052600436106100345760003560e01c8063092d0afc146100395780634abc22021461007b578063e7fb74c7146100b8575b600080fd5b34801561004557600080fd5b50610060600480360381019061005b9190610c80565b6100d4565b60405161007296959493929190610ee0565b60405180910390f35b34801561008757600080fd5b506100a2600480360381019061009d9190610cad565b61016d565b6040516100af9190610e8e565b60405180910390f35b6100d260048036038101906100cd9190610c80565b6105ea565b005b600081815481106100e457600080fd5b90600052602060002090600602016000915090508060000154908060010160009054906101000a900473ffffffffffffffffffffffffffffffffffffffff16908060020154908060030160009054906101000a900473ffffffffffffffffffffffffffffffffffffffff16908060040154908060050160009054906101000a900460ff16905086565b6000828460008290503373ffffffffffffffffffffffffffffffffffffffff168173ffffffffffffffffffffffffffffffffffffffff16636352211e846040518263ffffffff1660e01b81526004016101c69190610e8e565b60206040518083038186803b1580156101de57600080fd5b505afa1580156101f2573d6000803e3d6000fd5b505050506040513d601f19601f820116820180604052508101906102169190610c53565b73ffffffffffffffffffffffffffffffffffffffff161461023657600080fd5b858760008290503073ffffffffffffffffffffffffffffffffffffffff168173ffffffffffffffffffffffffffffffffffffffff1663081812fc846040518263ffffffff1660e01b815260040161028d9190610e8e565b60206040518083038186803b1580156102a557600080fd5b505afa1580156102b9573d6000803e3d6000fd5b505050506040513d601f19601f820116820180604052508101906102dd9190610c53565b73ffffffffffffffffffffffffffffffffffffffff16146102fd57600080fd5b60001515600160008b73ffffffffffffffffffffffffffffffffffffffff1673ffffffffffffffffffffffffffffffffffffffff16815260200190815260200160002060008c815260200190815260200160002060009054906101000a900460ff161515146103a1576040517f08c379a000000000000000000000000000000000000000000000000000000000815260040161039890610e2e565b60405180910390fd5b60008080549050905060006040518060c001604052808381526020018c73ffffffffffffffffffffffffffffffffffffffff1681526020018d81526020013373ffffffffffffffffffffffffffffffffffffffff1681526020018b81526020016000151581525090806001815401808255809150506001900390600052602060002090600602016000909190919091506000820151816000015560208201518160010160006101000a81548173ffffffffffffffffffffffffffffffffffffffff021916908373ffffffffffffffffffffffffffffffffffffffff1602179055506040820151816002015560608201518160030160006101000a81548173ffffffffffffffffffffffffffffffffffffffff021916908373ffffffffffffffffffffffffffffffffffffffff1602179055506080820151816004015560a08201518160050160006101000a81548160ff021916908315150217905550505060018060008c73ffffffffffffffffffffffffffffffffffffffff1673ffffffffffffffffffffffffffffffffffffffff16815260200190815260200160002060008d815260200190815260200160002060006101000a81548160ff021916908315150217905550806000828154811061057c5761057b611056565b5b9060005260206000209060060201600001541461059c5761059b611027565b5b7fd3742413e0092c98517699ed9f8567218c740a5a265a7a986d9430d597937522818c8c8c6040516105d19493929190610f41565b60405180910390a1809750505050505050509392505050565b80600080549050811080156106235750806000828154811061060f5761060e611056565b5b906000526020600020906006020160000154145b610662576040517f08c379a000000000000000000000000000000000000000000000000000000000815260040161065990610e4e565b60405180910390fd5b81600015156000828154811061067b5761067a611056565b5b906000526020600020906006020160050160009054906101000a900460ff161515146106dc576040517f08c379a00000000000000000000000000000000000000000000000000000000081526004016106d390610e6e565b60405180910390fd5b600083815481106106f0576106ef611056565b5b906000526020600020906006020160010160009054906101000a900473ffffffffffffffffffffffffffffffffffffffff166000848154811061073657610735611056565b5b90600052602060002090600602016002015460008290503073ffffffffffffffffffffffffffffffffffffffff168173ffffffffffffffffffffffffffffffffffffffff1663081812fc846040518263ffffffff1660e01b815260040161079d9190610e8e565b60206040518083038186803b1580156107b557600080fd5b505afa1580156107c9573d6000803e3d6000fd5b505050506040513d601f19601f820116820180604052508101906107ed9190610c53565b73ffffffffffffffffffffffffffffffffffffffff161461080d57600080fd5b6000868154811061082157610820611056565b5b906000526020600020906006020160040154341015610875576040517f08c379a000000000000000000000000000000000000000000000000000000000815260040161086c90610e0e565b60405180910390fd5b6000868154811061088957610888611056565b5b906000526020600020906006020160030160009054906101000a900473ffffffffffffffffffffffffffffffffffffffff1673ffffffffffffffffffffffffffffffffffffffff163373ffffffffffffffffffffffffffffffffffffffff1614156108f357600080fd5b60016000878154811061090957610908611056565b5b906000526020600020906006020160050160006101000a81548160ff02191690831515021790555060006001600080898154811061094a57610949611056565b5b906000526020600020906006020160010160009054906101000a900473ffffffffffffffffffffffffffffffffffffffff1673ffffffffffffffffffffffffffffffffffffffff1673ffffffffffffffffffffffffffffffffffffffff16815260200190815260200160002060008089815481106109cb576109ca611056565b5b906000526020600020906006020160020154815260200190815260200160002060006101000a81548160ff02191690831515021790555060008681548110610a1657610a15611056565b5b906000526020600020906006020160010160009054906101000a900473ffffffffffffffffffffffffffffffffffffffff1673ffffffffffffffffffffffffffffffffffffffff166342842e0e60008881548110610a7757610a76611056565b5b906000526020600020906006020160030160009054906101000a900473ffffffffffffffffffffffffffffffffffffffff163360008a81548110610abe57610abd611056565b5b9060005260206000209060060201600201546040518463ffffffff1660e01b8152600401610aee93929190610dd7565b600060405180830381600087803b158015610b0857600080fd5b505af1158015610b1c573d6000803e3d6000fd5b5050505060008681548110610b3457610b33611056565b5b906000526020600020906006020160030160009054906101000a900473ffffffffffffffffffffffffffffffffffffffff1673ffffffffffffffffffffffffffffffffffffffff166108fc349081150290604051600060405180830381858888f19350505050158015610bab573d6000803e3d6000fd5b507f8164c6f8917e418c49813e4586897c7067de5a886aa1bea980cd11fa57d48264863360008981548110610be357610be2611056565b5b906000526020600020906006020160040154604051610c0493929190610ea9565b60405180910390a1505050505050565b600081359050610c238161112e565b92915050565b600081519050610c388161112e565b92915050565b600081359050610c4d81611145565b92915050565b600060208284031215610c6957610c68611085565b5b6000610c7784828501610c29565b91505092915050565b600060208284031215610c9657610c95611085565b5b6000610ca484828501610c3e565b91505092915050565b600080600060608486031215610cc657610cc5611085565b5b6000610cd486828701610c3e565b9350506020610ce586828701610c14565b9250506040610cf686828701610c3e565b9150509250925092565b610d0981610ff1565b82525050565b610d1881610fa9565b82525050565b610d2781610f97565b82525050565b610d3681610fbb565b82525050565b6000610d49601583610f86565b9150610d548261108a565b602082019050919050565b6000610d6c601c83610f86565b9150610d77826110b3565b602082019050919050565b6000610d8f601383610f86565b9150610d9a826110dc565b602082019050919050565b6000610db2601583610f86565b9150610dbd82611105565b602082019050919050565b610dd181610fe7565b82525050565b6000606082019050610dec6000830186610d00565b610df96020830185610d1e565b610e066040830184610dc8565b949350505050565b60006020820190508181036000830152610e2781610d3c565b9050919050565b60006020820190508181036000830152610e4781610d5f565b9050919050565b60006020820190508181036000830152610e6781610d82565b9050919050565b60006020820190508181036000830152610e8781610da5565b9050919050565b6000602082019050610ea36000830184610dc8565b92915050565b6000606082019050610ebe6000830186610dc8565b610ecb6020830185610d1e565b610ed86040830184610dc8565b949350505050565b600060c082019050610ef56000830189610dc8565b610f026020830188610d1e565b610f0f6040830187610dc8565b610f1c6060830186610d0f565b610f296080830185610dc8565b610f3660a0830184610d2d565b979650505050505050565b6000608082019050610f566000830187610dc8565b610f636020830186610dc8565b610f706040830185610d1e565b610f7d6060830184610dc8565b95945050505050565b600082825260208201905092915050565b6000610fa282610fc7565b9050919050565b6000610fb482610fc7565b9050919050565b60008115159050919050565b600073ffffffffffffffffffffffffffffffffffffffff82169050919050565b6000819050919050565b6000610ffc82611003565b9050919050565b600061100e82611015565b9050919050565b600061102082610fc7565b9050919050565b7f4e487b7100000000000000000000000000000000000000000000000000000000600052600160045260246000fd5b7f4e487b7100000000000000000000000000000000000000000000000000000000600052603260045260246000fd5b600080fd5b7f4e6f7420656e6f7567682066756e64732073656e740000000000000000000000600082015250565b7f4974656d20697320616c726561647920757020666f722073616c652100000000600082015250565b7f436f756c64206e6f742066696e64206974656d00000000000000000000000000600082015250565b7f4974656d20697320616c726561647920736f6c64210000000000000000000000600082015250565b61113781610f97565b811461114257600080fd5b50565b61114e81610fe7565b811461115957600080fd5b5056fea26469706673582212205736bf7a67cc5f39ee10633c638feb9034be08163ee01e8ecbf3737e84118e5664736f6c63430008070033",
  "immutableReferences": {},
  "source": "pragma solidity ^0.8.0;\n\nimport \"@openzeppelin/contracts/token/ERC721/IERC721.sol\";\n\ncontract MorarableMarketContract {\n    struct AuctionItem {\n        uint256 id;\n        address tokenAddress;\n        uint256 tokenId;\n        address payable seller;\n        uint256 askingPrice;\n        bool isSold;\n    }\n\n    AuctionItem[] public itemsForSale;\n    mapping (address => mapping (uint256 => bool)) activeItems;\n\n    event itemAdded(uint256 id, uint256 tokenId, address tokenAddress, uint256 askingPrice);\n    event itemSold(uint256 id, address buyer, uint256 askingPrice);\n\n    modifier OnlyItemOwner(address tokenAddress, uint256 tokenId){\n        IERC721 tokenContract = IERC721(tokenAddress);\n        require(tokenContract.ownerOf(tokenId) == msg.sender);\n        _;\n    }\n\n    modifier HasTransferApproval(address tokenAddress, uint256 tokenId){\n        IERC721 tokenContract = IERC721(tokenAddress);\n        require(tokenContract.getApproved(tokenId) == address(this));\n        _;\n    }\n\n    modifier ItemExists(uint256 id){\n        require(id < itemsForSale.length && itemsForSale[id].id == id, \"Could not find item\");\n        _;\n    }\n\n    modifier IsForSale(uint256 id){\n        require(itemsForSale[id].isSold == false, \"Item is already sold!\");\n        _;\n    }\n\n    function addItemToMarket(uint256 tokenId, address tokenAddress, uint256 askingPrice) OnlyItemOwner(tokenAddress,tokenId) HasTransferApproval(tokenAddress,tokenId) external returns (uint256){\n        require(activeItems[tokenAddress][tokenId] == false, \"Item is already up for sale!\");\n        uint256 newItemId = itemsForSale.length;\n        itemsForSale.push(AuctionItem(newItemId, tokenAddress, tokenId, payable(msg.sender), askingPrice, false));\n        activeItems[tokenAddress][tokenId] = true;\n\n        assert(itemsForSale[newItemId].id == newItemId);\n        emit itemAdded(newItemId, tokenId, tokenAddress, askingPrice);\n        return newItemId;\n    }\n\n    function buyItem(uint256 id) payable external ItemExists(id) IsForSale(id) HasTransferApproval(itemsForSale[id].tokenAddress,itemsForSale[id].tokenId){\n        require(msg.value >= itemsForSale[id].askingPrice, \"Not enough funds sent\");\n        require(msg.sender != itemsForSale[id].seller);\n\n        itemsForSale[id].isSold = true;\n        activeItems[itemsForSale[id].tokenAddress][itemsForSale[id].tokenId] = false;\n        IERC721(itemsForSale[id].tokenAddress).safeTransferFrom(itemsForSale[id].seller, msg.sender, itemsForSale[id].tokenId);\n        itemsForSale[id].seller.transfer(msg.value);\n\n        emit itemSold(id, msg.sender,itemsForSale[id].askingPrice);\n    }\n}",
  "sourcePath": "/Users/jun/Desktop/frontend/contracts/contracts/Marketplace.sol",
  "compiler": {
    "name": "solc",
    "version": "0.8.7+commit.e28d00a7.Emscripten.clang"
  },
  "schemaVersion": "3.4.3",
  "updatedAt": "2021-09-21T07:40:19.538Z",
  "networkType": "ethereum",
  "devdoc": {
    "kind": "dev",
    "methods": {},
    "version": 1
  },
  "userdoc": {
    "kind": "user",
    "methods": {},
    "version": 1
  }
}