{
  "contractName": "MorarableToken",
  "abi": [
    {
      "inputs": [],
      "stateMutability": "nonpayable",
      "type": "constructor"
    },
    {
      "anonymous": false,
      "inputs": [
        {
          "indexed": true,
          "internalType": "address",
          "name": "owner",
          "type": "address"
        },
        {
          "indexed": true,
          "internalType": "address",
          "name": "approved",
          "type": "address"
        },
        {
          "indexed": true,
          "internalType": "uint256",
          "name": "tokenId",
          "type": "uint256"
        }
      ],
      "name": "Approval",
      "type": "event"
    },
    {
      "anonymous": false,
      "inputs": [
        {
          "indexed": true,
          "internalType": "address",
          "name": "owner",
          "type": "address"
        },
        {
          "indexed": true,
          "internalType": "address",
          "name": "operator",
          "type": "address"
        },
        {
          "indexed": false,
          "internalType": "bool",
          "name": "approved",
          "type": "bool"
        }
      ],
      "name": "ApprovalForAll",
      "type": "event"
    },
    {
      "anonymous": false,
      "inputs": [
        {
          "indexed": true,
          "internalType": "address",
          "name": "from",
          "type": "address"
        },
        {
          "indexed": true,
          "internalType": "address",
          "name": "to",
          "type": "address"
        },
        {
          "indexed": true,
          "internalType": "uint256",
          "name": "tokenId",
          "type": "uint256"
        }
      ],
      "name": "Transfer",
      "type": "event"
    },
    {
      "inputs": [
        {
          "internalType": "uint256",
          "name": "",
          "type": "uint256"
        }
      ],
      "name": "Items",
      "outputs": [
        {
          "internalType": "uint256",
          "name": "id",
          "type": "uint256"
        },
        {
          "internalType": "address",
          "name": "creator",
          "type": "address"
        },
        {
          "internalType": "string",
          "name": "uri",
          "type": "string"
        }
      ],
      "stateMutability": "view",
      "type": "function",
      "constant": true
    },
    {
      "inputs": [
        {
          "internalType": "address",
          "name": "to",
          "type": "address"
        },
        {
          "internalType": "uint256",
          "name": "tokenId",
          "type": "uint256"
        }
      ],
      "name": "approve",
      "outputs": [],
      "stateMutability": "nonpayable",
      "type": "function"
    },
    {
      "inputs": [
        {
          "internalType": "address",
          "name": "owner",
          "type": "address"
        }
      ],
      "name": "balanceOf",
      "outputs": [
        {
          "internalType": "uint256",
          "name": "",
          "type": "uint256"
        }
      ],
      "stateMutability": "view",
      "type": "function",
      "constant": true
    },
    {
      "inputs": [
        {
          "internalType": "uint256",
          "name": "tokenId",
          "type": "uint256"
        }
      ],
      "name": "getApproved",
      "outputs": [
        {
          "internalType": "address",
          "name": "",
          "type": "address"
        }
      ],
      "stateMutability": "view",
      "type": "function",
      "constant": true
    },
    {
      "inputs": [
        {
          "internalType": "address",
          "name": "owner",
          "type": "address"
        },
        {
          "internalType": "address",
          "name": "operator",
          "type": "address"
        }
      ],
      "name": "isApprovedForAll",
      "outputs": [
        {
          "internalType": "bool",
          "name": "",
          "type": "bool"
        }
      ],
      "stateMutability": "view",
      "type": "function",
      "constant": true
    },
    {
      "inputs": [],
      "name": "name",
      "outputs": [
        {
          "internalType": "string",
          "name": "",
          "type": "string"
        }
      ],
      "stateMutability": "view",
      "type": "function",
      "constant": true
    },
    {
      "inputs": [
        {
          "internalType": "uint256",
          "name": "tokenId",
          "type": "uint256"
        }
      ],
      "name": "ownerOf",
      "outputs": [
        {
          "internalType": "address",
          "name": "",
          "type": "address"
        }
      ],
      "stateMutability": "view",
      "type": "function",
      "constant": true
    },
    {
      "inputs": [
        {
          "internalType": "address",
          "name": "from",
          "type": "address"
        },
        {
          "internalType": "address",
          "name": "to",
          "type": "address"
        },
        {
          "internalType": "uint256",
          "name": "tokenId",
          "type": "uint256"
        }
      ],
      "name": "safeTransferFrom",
      "outputs": [],
      "stateMutability": "nonpayable",
      "type": "function"
    },
    {
      "inputs": [
        {
          "internalType": "address",
          "name": "from",
          "type": "address"
        },
        {
          "internalType": "address",
          "name": "to",
          "type": "address"
        },
        {
          "internalType": "uint256",
          "name": "tokenId",
          "type": "uint256"
        },
        {
          "internalType": "bytes",
          "name": "_data",
          "type": "bytes"
        }
      ],
      "name": "safeTransferFrom",
      "outputs": [],
      "stateMutability": "nonpayable",
      "type": "function"
    },
    {
      "inputs": [
        {
          "internalType": "address",
          "name": "operator",
          "type": "address"
        },
        {
          "internalType": "bool",
          "name": "approved",
          "type": "bool"
        }
      ],
      "name": "setApprovalForAll",
      "outputs": [],
      "stateMutability": "nonpayable",
      "type": "function"
    },
    {
      "inputs": [
        {
          "internalType": "bytes4",
          "name": "interfaceId",
          "type": "bytes4"
        }
      ],
      "name": "supportsInterface",
      "outputs": [
        {
          "internalType": "bool",
          "name": "",
          "type": "bool"
        }
      ],
      "stateMutability": "view",
      "type": "function",
      "constant": true
    },
    {
      "inputs": [],
      "name": "symbol",
      "outputs": [
        {
          "internalType": "string",
          "name": "",
          "type": "string"
        }
      ],
      "stateMutability": "view",
      "type": "function",
      "constant": true
    },
    {
      "inputs": [
        {
          "internalType": "uint256",
          "name": "tokenId",
          "type": "uint256"
        }
      ],
      "name": "tokenURI",
      "outputs": [
        {
          "internalType": "string",
          "name": "",
          "type": "string"
        }
      ],
      "stateMutability": "view",
      "type": "function",
      "constant": true
    },
    {
      "inputs": [
        {
          "internalType": "address",
          "name": "from",
          "type": "address"
        },
        {
          "internalType": "address",
          "name": "to",
          "type": "address"
        },
        {
          "internalType": "uint256",
          "name": "tokenId",
          "type": "uint256"
        }
      ],
      "name": "transferFrom",
      "outputs": [],
      "stateMutability": "nonpayable",
      "type": "function"
    },
    {
      "inputs": [
        {
          "internalType": "string",
          "name": "uri",
          "type": "string"
        }
      ],
      "name": "CreateItem",
      "outputs": [
        {
          "internalType": "uint256",
          "name": "",
          "type": "uint256"
        }
      ],
      "stateMutability": "nonpayable",
      "type": "function"
    }
  ],
  "bytecode": "0x60806040523480156200001157600080fd5b506040518060400160405280600e81526020017f4d6f72617261626c65546f6b656e0000000000000000000000000000000000008152506040518060400160405280600481526020017f4d6f726100000000000000000000000000000000000000000000000000000000815250816000908051906020019062000096929190620000b8565b508060019080519060200190620000af929190620000b8565b505050620001cd565b828054620000c69062000168565b90600052602060002090601f016020900481019282620000ea576000855562000136565b82601f106200010557805160ff191683800117855562000136565b8280016001018555821562000136579182015b828111156200013557825182559160200191906001019062000118565b5b50905062000145919062000149565b5090565b5b80821115620001645760008160009055506001016200014a565b5090565b600060028204905060018216806200018157607f821691505b602082108114156200019857620001976200019e565b5b50919050565b7f4e487b7100000000000000000000000000000000000000000000000000000000600052602260045260246000fd5b612b1680620001dd6000396000f3fe608060405234801561001057600080fd5b50600436106100f55760003560e01c80636352211e11610097578063a22cb46511610066578063a22cb465146102ac578063b88d4fde146102c8578063c87b56dd146102e4578063e985e9c514610314576100f5565b80636352211e146101fe5780636c7be44b1461022e57806370a082311461025e57806395d89b411461028e576100f5565b8063095ea7b3116100d3578063095ea7b31461017857806317b47cc41461019457806323b872dd146101c657806342842e0e146101e2576100f5565b806301ffc9a7146100fa57806306fdde031461012a578063081812fc14610148575b600080fd5b610114600480360381019061010f9190611c11565b610344565b6040516101219190612026565b60405180910390f35b610132610426565b60405161013f9190612041565b60405180910390f35b610162600480360381019061015d9190611cb4565b6104b8565b60405161016f9190611fbf565b60405180910390f35b610192600480360381019061018d9190611bd1565b61053d565b005b6101ae60048036038101906101a99190611cb4565b610655565b6040516101bd9392919061223e565b60405180910390f35b6101e060048036038101906101db9190611abb565b610727565b005b6101fc60048036038101906101f79190611abb565b610787565b005b61021860048036038101906102139190611cb4565b6107a7565b6040516102259190611fbf565b60405180910390f35b61024860048036038101906102439190611c6b565b610859565b6040516102559190612223565b60405180910390f35b61027860048036038101906102739190611a4e565b61093b565b6040516102859190612223565b60405180910390f35b6102966109f3565b6040516102a39190612041565b60405180910390f35b6102c660048036038101906102c19190611b91565b610a85565b005b6102e260048036038101906102dd9190611b0e565b610c06565b005b6102fe60048036038101906102f99190611cb4565b610c68565b60405161030b9190612041565b60405180910390f35b61032e60048036038101906103299190611a7b565b610d0f565b60405161033b9190612026565b60405180910390f35b60007f80ac58cd000000000000000000000000000000000000000000000000000000007bffffffffffffffffffffffffffffffffffffffffffffffffffffffff1916827bffffffffffffffffffffffffffffffffffffffffffffffffffffffff1916148061040f57507f5b5e139f000000000000000000000000000000000000000000000000000000007bffffffffffffffffffffffffffffffffffffffffffffffffffffffff1916827bffffffffffffffffffffffffffffffffffffffffffffffffffffffff1916145b8061041f575061041e82610da3565b5b9050919050565b606060008054610435906124b7565b80601f0160208091040260200160405190810160405280929190818152602001828054610461906124b7565b80156104ae5780601f10610483576101008083540402835291602001916104ae565b820191906000526020600020905b81548152906001019060200180831161049157829003601f168201915b5050505050905090565b60006104c382610e0d565b610502576040517f08c379a00000000000000000000000000000000000000000000000000000000081526004016104f990612183565b60405180910390fd5b6004600083815260200190815260200160002060009054906101000a900473ffffffffffffffffffffffffffffffffffffffff169050919050565b6000610548826107a7565b90508073ffffffffffffffffffffffffffffffffffffffff168373ffffffffffffffffffffffffffffffffffffffff1614156105b9576040517f08c379a00000000000000000000000000000000000000000000000000000000081526004016105b0906121e3565b60405180910390fd5b8073ffffffffffffffffffffffffffffffffffffffff166105d8610e79565b73ffffffffffffffffffffffffffffffffffffffff161480610607575061060681610601610e79565b610d0f565b5b610646576040517f08c379a000000000000000000000000000000000000000000000000000000000815260040161063d90612103565b60405180910390fd5b6106508383610e81565b505050565b60076020528060005260406000206000915090508060000154908060010160009054906101000a900473ffffffffffffffffffffffffffffffffffffffff16908060020180546106a4906124b7565b80601f01602080910402602001604051908101604052809291908181526020018280546106d0906124b7565b801561071d5780601f106106f25761010080835404028352916020019161071d565b820191906000526020600020905b81548152906001019060200180831161070057829003601f168201915b5050505050905083565b610738610732610e79565b82610f3a565b610777576040517f08c379a000000000000000000000000000000000000000000000000000000000815260040161076e90612203565b60405180910390fd5b610782838383611018565b505050565b6107a283838360405180602001604052806000815250610c06565b505050565b6000806002600084815260200190815260200160002060009054906101000a900473ffffffffffffffffffffffffffffffffffffffff169050600073ffffffffffffffffffffffffffffffffffffffff168173ffffffffffffffffffffffffffffffffffffffff161415610850576040517f08c379a000000000000000000000000000000000000000000000000000000000815260040161084790612143565b60405180910390fd5b80915050919050565b60006108656006611274565b6000610871600661128a565b905061087d3382611298565b60405180606001604052808281526020013373ffffffffffffffffffffffffffffffffffffffff16815260200184815250600760008381526020019081526020016000206000820151816000015560208201518160010160006101000a81548173ffffffffffffffffffffffffffffffffffffffff021916908373ffffffffffffffffffffffffffffffffffffffff160217905550604082015181600201908051906020019061092e929190611862565b5090505080915050919050565b60008073ffffffffffffffffffffffffffffffffffffffff168273ffffffffffffffffffffffffffffffffffffffff1614156109ac576040517f08c379a00000000000000000000000000000000000000000000000000000000081526004016109a390612123565b60405180910390fd5b600360008373ffffffffffffffffffffffffffffffffffffffff1673ffffffffffffffffffffffffffffffffffffffff168152602001908152602001600020549050919050565b606060018054610a02906124b7565b80601f0160208091040260200160405190810160405280929190818152602001828054610a2e906124b7565b8015610a7b5780601f10610a5057610100808354040283529160200191610a7b565b820191906000526020600020905b815481529060010190602001808311610a5e57829003601f168201915b5050505050905090565b610a8d610e79565b73ffffffffffffffffffffffffffffffffffffffff168273ffffffffffffffffffffffffffffffffffffffff161415610afb576040517f08c379a0000000000000000000000000000000000000000000000000000000008152600401610af2906120c3565b60405180910390fd5b8060056000610b08610e79565b73ffffffffffffffffffffffffffffffffffffffff1673ffffffffffffffffffffffffffffffffffffffff16815260200190815260200160002060008473ffffffffffffffffffffffffffffffffffffffff1673ffffffffffffffffffffffffffffffffffffffff16815260200190815260200160002060006101000a81548160ff0219169083151502179055508173ffffffffffffffffffffffffffffffffffffffff16610bb5610e79565b73ffffffffffffffffffffffffffffffffffffffff167f17307eab39ab6107e8899845ad3d59bd9653f200f220920489ca2b5937696c3183604051610bfa9190612026565b60405180910390a35050565b610c17610c11610e79565b83610f3a565b610c56576040517f08c379a0000000000000000000000000000000000000000000000000000000008152600401610c4d90612203565b60405180910390fd5b610c62848484846112b6565b50505050565b6060610c7382610e0d565b610cb2576040517f08c379a0000000000000000000000000000000000000000000000000000000008152600401610ca9906121c3565b60405180910390fd5b6000610cbc611312565b90506000815111610cdc5760405180602001604052806000815250610d07565b80610ce684611329565b604051602001610cf7929190611f9b565b6040516020818303038152906040525b915050919050565b6000600560008473ffffffffffffffffffffffffffffffffffffffff1673ffffffffffffffffffffffffffffffffffffffff16815260200190815260200160002060008373ffffffffffffffffffffffffffffffffffffffff1673ffffffffffffffffffffffffffffffffffffffff16815260200190815260200160002060009054906101000a900460ff16905092915050565b60007f01ffc9a7000000000000000000000000000000000000000000000000000000007bffffffffffffffffffffffffffffffffffffffffffffffffffffffff1916827bffffffffffffffffffffffffffffffffffffffffffffffffffffffff1916149050919050565b60008073ffffffffffffffffffffffffffffffffffffffff166002600084815260200190815260200160002060009054906101000a900473ffffffffffffffffffffffffffffffffffffffff1673ffffffffffffffffffffffffffffffffffffffff1614159050919050565b600033905090565b816004600083815260200190815260200160002060006101000a81548173ffffffffffffffffffffffffffffffffffffffff021916908373ffffffffffffffffffffffffffffffffffffffff160217905550808273ffffffffffffffffffffffffffffffffffffffff16610ef4836107a7565b73ffffffffffffffffffffffffffffffffffffffff167f8c5be1e5ebec7d5bd14f71427d1e84f3dd0314c0f7b2291e5b200ac8c7c3b92560405160405180910390a45050565b6000610f4582610e0d565b610f84576040517f08c379a0000000000000000000000000000000000000000000000000000000008152600401610f7b906120e3565b60405180910390fd5b6000610f8f836107a7565b90508073ffffffffffffffffffffffffffffffffffffffff168473ffffffffffffffffffffffffffffffffffffffff161480610ffe57508373ffffffffffffffffffffffffffffffffffffffff16610fe6846104b8565b73ffffffffffffffffffffffffffffffffffffffff16145b8061100f575061100e8185610d0f565b5b91505092915050565b8273ffffffffffffffffffffffffffffffffffffffff16611038826107a7565b73ffffffffffffffffffffffffffffffffffffffff161461108e576040517f08c379a0000000000000000000000000000000000000000000000000000000008152600401611085906121a3565b60405180910390fd5b600073ffffffffffffffffffffffffffffffffffffffff168273ffffffffffffffffffffffffffffffffffffffff1614156110fe576040517f08c379a00000000000000000000000000000000000000000000000000000000081526004016110f5906120a3565b60405180910390fd5b61110983838361148a565b611114600082610e81565b6001600360008573ffffffffffffffffffffffffffffffffffffffff1673ffffffffffffffffffffffffffffffffffffffff168152602001908152602001600020600082825461116491906123cd565b925050819055506001600360008473ffffffffffffffffffffffffffffffffffffffff1673ffffffffffffffffffffffffffffffffffffffff16815260200190815260200160002060008282546111bb9190612346565b92505081905550816002600083815260200190815260200160002060006101000a81548173ffffffffffffffffffffffffffffffffffffffff021916908373ffffffffffffffffffffffffffffffffffffffff160217905550808273ffffffffffffffffffffffffffffffffffffffff168473ffffffffffffffffffffffffffffffffffffffff167fddf252ad1be2c89b69c2b068fc378daa952ba7f163c4a11628f55a4df523b3ef60405160405180910390a4505050565b6001816000016000828254019250508190555050565b600081600001549050919050565b6112b282826040518060200160405280600081525061148f565b5050565b6112c1848484611018565b6112cd848484846114ea565b61130c576040517f08c379a000000000000000000000000000000000000000000000000000000000815260040161130390612063565b60405180910390fd5b50505050565b606060405180602001604052806000815250905090565b60606000821415611371576040518060400160405280600181526020017f30000000000000000000000000000000000000000000000000000000000000008152509050611485565b600082905060005b600082146113a357808061138c9061251a565b915050600a8261139c919061239c565b9150611379565b60008167ffffffffffffffff8111156113bf576113be612650565b5b6040519080825280601f01601f1916602001820160405280156113f15781602001600182028036833780820191505090505b5090505b6000851461147e5760018261140a91906123cd565b9150600a856114199190612563565b60306114259190612346565b60f81b81838151811061143b5761143a612621565b5b60200101907effffffffffffffffffffffffffffffffffffffffffffffffffffffffffffff1916908160001a905350600a85611477919061239c565b94506113f5565b8093505050505b919050565b505050565b6114998383611681565b6114a660008484846114ea565b6114e5576040517f08c379a00000000000000000000000000000000000000000000000000000000081526004016114dc90612063565b60405180910390fd5b505050565b600061150b8473ffffffffffffffffffffffffffffffffffffffff1661184f565b15611674578373ffffffffffffffffffffffffffffffffffffffff1663150b7a02611534610e79565b8786866040518563ffffffff1660e01b81526004016115569493929190611fda565b602060405180830381600087803b15801561157057600080fd5b505af19250505080156115a157506040513d601f19601f8201168201806040525081019061159e9190611c3e565b60015b611624573d80600081146115d1576040519150601f19603f3d011682016040523d82523d6000602084013e6115d6565b606091505b5060008151141561161c576040517f08c379a000000000000000000000000000000000000000000000000000000000815260040161161390612063565b60405180910390fd5b805181602001fd5b63150b7a0260e01b7bffffffffffffffffffffffffffffffffffffffffffffffffffffffff1916817bffffffffffffffffffffffffffffffffffffffffffffffffffffffff191614915050611679565b600190505b949350505050565b600073ffffffffffffffffffffffffffffffffffffffff168273ffffffffffffffffffffffffffffffffffffffff1614156116f1576040517f08c379a00000000000000000000000000000000000000000000000000000000081526004016116e890612163565b60405180910390fd5b6116fa81610e0d565b1561173a576040517f08c379a000000000000000000000000000000000000000000000000000000000815260040161173190612083565b60405180910390fd5b6117466000838361148a565b6001600360008473ffffffffffffffffffffffffffffffffffffffff1673ffffffffffffffffffffffffffffffffffffffff16815260200190815260200160002060008282546117969190612346565b92505081905550816002600083815260200190815260200160002060006101000a81548173ffffffffffffffffffffffffffffffffffffffff021916908373ffffffffffffffffffffffffffffffffffffffff160217905550808273ffffffffffffffffffffffffffffffffffffffff16600073ffffffffffffffffffffffffffffffffffffffff167fddf252ad1be2c89b69c2b068fc378daa952ba7f163c4a11628f55a4df523b3ef60405160405180910390a45050565b600080823b905060008111915050919050565b82805461186e906124b7565b90600052602060002090601f01602090048101928261189057600085556118d7565b82601f106118a957805160ff19168380011785556118d7565b828001600101855582156118d7579182015b828111156118d65782518255916020019190600101906118bb565b5b5090506118e491906118e8565b5090565b5b808211156119015760008160009055506001016118e9565b5090565b6000611918611913846122a1565b61227c565b90508281526020810184848401111561193457611933612684565b5b61193f848285612475565b509392505050565b600061195a611955846122d2565b61227c565b90508281526020810184848401111561197657611975612684565b5b611981848285612475565b509392505050565b60008135905061199881612a84565b92915050565b6000813590506119ad81612a9b565b92915050565b6000813590506119c281612ab2565b92915050565b6000815190506119d781612ab2565b92915050565b600082601f8301126119f2576119f161267f565b5b8135611a02848260208601611905565b91505092915050565b600082601f830112611a2057611a1f61267f565b5b8135611a30848260208601611947565b91505092915050565b600081359050611a4881612ac9565b92915050565b600060208284031215611a6457611a6361268e565b5b6000611a7284828501611989565b91505092915050565b60008060408385031215611a9257611a9161268e565b5b6000611aa085828601611989565b9250506020611ab185828601611989565b9150509250929050565b600080600060608486031215611ad457611ad361268e565b5b6000611ae286828701611989565b9350506020611af386828701611989565b9250506040611b0486828701611a39565b9150509250925092565b60008060008060808587031215611b2857611b2761268e565b5b6000611b3687828801611989565b9450506020611b4787828801611989565b9350506040611b5887828801611a39565b925050606085013567ffffffffffffffff811115611b7957611b78612689565b5b611b85878288016119dd565b91505092959194509250565b60008060408385031215611ba857611ba761268e565b5b6000611bb685828601611989565b9250506020611bc78582860161199e565b9150509250929050565b60008060408385031215611be857611be761268e565b5b6000611bf685828601611989565b9250506020611c0785828601611a39565b9150509250929050565b600060208284031215611c2757611c2661268e565b5b6000611c35848285016119b3565b91505092915050565b600060208284031215611c5457611c5361268e565b5b6000611c62848285016119c8565b91505092915050565b600060208284031215611c8157611c8061268e565b5b600082013567ffffffffffffffff811115611c9f57611c9e612689565b5b611cab84828501611a0b565b91505092915050565b600060208284031215611cca57611cc961268e565b5b6000611cd884828501611a39565b91505092915050565b611cea81612401565b82525050565b611cf981612413565b82525050565b6000611d0a82612303565b611d148185612319565b9350611d24818560208601612484565b611d2d81612693565b840191505092915050565b6000611d438261230e565b611d4d818561232a565b9350611d5d818560208601612484565b611d6681612693565b840191505092915050565b6000611d7c8261230e565b611d86818561233b565b9350611d96818560208601612484565b80840191505092915050565b6000611daf60328361232a565b9150611dba826126a4565b604082019050919050565b6000611dd2601c8361232a565b9150611ddd826126f3565b602082019050919050565b6000611df560248361232a565b9150611e008261271c565b604082019050919050565b6000611e1860198361232a565b9150611e238261276b565b602082019050919050565b6000611e3b602c8361232a565b9150611e4682612794565b604082019050919050565b6000611e5e60388361232a565b9150611e69826127e3565b604082019050919050565b6000611e81602a8361232a565b9150611e8c82612832565b604082019050919050565b6000611ea460298361232a565b9150611eaf82612881565b604082019050919050565b6000611ec760208361232a565b9150611ed2826128d0565b602082019050919050565b6000611eea602c8361232a565b9150611ef5826128f9565b604082019050919050565b6000611f0d60298361232a565b9150611f1882612948565b604082019050919050565b6000611f30602f8361232a565b9150611f3b82612997565b604082019050919050565b6000611f5360218361232a565b9150611f5e826129e6565b604082019050919050565b6000611f7660318361232a565b9150611f8182612a35565b604082019050919050565b611f958161246b565b82525050565b6000611fa78285611d71565b9150611fb38284611d71565b91508190509392505050565b6000602082019050611fd46000830184611ce1565b92915050565b6000608082019050611fef6000830187611ce1565b611ffc6020830186611ce1565b6120096040830185611f8c565b818103606083015261201b8184611cff565b905095945050505050565b600060208201905061203b6000830184611cf0565b92915050565b6000602082019050818103600083015261205b8184611d38565b905092915050565b6000602082019050818103600083015261207c81611da2565b9050919050565b6000602082019050818103600083015261209c81611dc5565b9050919050565b600060208201905081810360008301526120bc81611de8565b9050919050565b600060208201905081810360008301526120dc81611e0b565b9050919050565b600060208201905081810360008301526120fc81611e2e565b9050919050565b6000602082019050818103600083015261211c81611e51565b9050919050565b6000602082019050818103600083015261213c81611e74565b9050919050565b6000602082019050818103600083015261215c81611e97565b9050919050565b6000602082019050818103600083015261217c81611eba565b9050919050565b6000602082019050818103600083015261219c81611edd565b9050919050565b600060208201905081810360008301526121bc81611f00565b9050919050565b600060208201905081810360008301526121dc81611f23565b9050919050565b600060208201905081810360008301526121fc81611f46565b9050919050565b6000602082019050818103600083015261221c81611f69565b9050919050565b60006020820190506122386000830184611f8c565b92915050565b60006060820190506122536000830186611f8c565b6122606020830185611ce1565b81810360408301526122728184611d38565b9050949350505050565b6000612286612297565b905061229282826124e9565b919050565b6000604051905090565b600067ffffffffffffffff8211156122bc576122bb612650565b5b6122c582612693565b9050602081019050919050565b600067ffffffffffffffff8211156122ed576122ec612650565b5b6122f682612693565b9050602081019050919050565b600081519050919050565b600081519050919050565b600082825260208201905092915050565b600082825260208201905092915050565b600081905092915050565b60006123518261246b565b915061235c8361246b565b9250827fffffffffffffffffffffffffffffffffffffffffffffffffffffffffffffffff0382111561239157612390612594565b5b828201905092915050565b60006123a78261246b565b91506123b28361246b565b9250826123c2576123c16125c3565b5b828204905092915050565b60006123d88261246b565b91506123e38361246b565b9250828210156123f6576123f5612594565b5b828203905092915050565b600061240c8261244b565b9050919050565b60008115159050919050565b60007fffffffff0000000000000000000000000000000000000000000000000000000082169050919050565b600073ffffffffffffffffffffffffffffffffffffffff82169050919050565b6000819050919050565b82818337600083830152505050565b60005b838110156124a2578082015181840152602081019050612487565b838111156124b1576000848401525b50505050565b600060028204905060018216806124cf57607f821691505b602082108114156124e3576124e26125f2565b5b50919050565b6124f282612693565b810181811067ffffffffffffffff8211171561251157612510612650565b5b80604052505050565b60006125258261246b565b91507fffffffffffffffffffffffffffffffffffffffffffffffffffffffffffffffff82141561255857612557612594565b5b600182019050919050565b600061256e8261246b565b91506125798361246b565b925082612589576125886125c3565b5b828206905092915050565b7f4e487b7100000000000000000000000000000000000000000000000000000000600052601160045260246000fd5b7f4e487b7100000000000000000000000000000000000000000000000000000000600052601260045260246000fd5b7f4e487b7100000000000000000000000000000000000000000000000000000000600052602260045260246000fd5b7f4e487b7100000000000000000000000000000000000000000000000000000000600052603260045260246000fd5b7f4e487b7100000000000000000000000000000000000000000000000000000000600052604160045260246000fd5b600080fd5b600080fd5b600080fd5b600080fd5b6000601f19601f8301169050919050565b7f4552433732313a207472616e7366657220746f206e6f6e20455243373231526560008201527f63656976657220696d706c656d656e7465720000000000000000000000000000602082015250565b7f4552433732313a20746f6b656e20616c7265616479206d696e74656400000000600082015250565b7f4552433732313a207472616e7366657220746f20746865207a65726f2061646460008201527f7265737300000000000000000000000000000000000000000000000000000000602082015250565b7f4552433732313a20617070726f766520746f2063616c6c657200000000000000600082015250565b7f4552433732313a206f70657261746f7220717565727920666f72206e6f6e657860008201527f697374656e7420746f6b656e0000000000000000000000000000000000000000602082015250565b7f4552433732313a20617070726f76652063616c6c6572206973206e6f74206f7760008201527f6e6572206e6f7220617070726f76656420666f7220616c6c0000000000000000602082015250565b7f4552433732313a2062616c616e636520717565727920666f7220746865207a6560008201527f726f206164647265737300000000000000000000000000000000000000000000602082015250565b7f4552433732313a206f776e657220717565727920666f72206e6f6e657869737460008201527f656e7420746f6b656e0000000000000000000000000000000000000000000000602082015250565b7f4552433732313a206d696e7420746f20746865207a65726f2061646472657373600082015250565b7f4552433732313a20617070726f76656420717565727920666f72206e6f6e657860008201527f697374656e7420746f6b656e0000000000000000000000000000000000000000602082015250565b7f4552433732313a207472616e73666572206f6620746f6b656e2074686174206960008201527f73206e6f74206f776e0000000000000000000000000000000000000000000000602082015250565b7f4552433732314d657461646174613a2055524920717565727920666f72206e6f60008201527f6e6578697374656e7420746f6b656e0000000000000000000000000000000000602082015250565b7f4552433732313a20617070726f76616c20746f2063757272656e74206f776e6560008201527f7200000000000000000000000000000000000000000000000000000000000000602082015250565b7f4552433732313a207472616e736665722063616c6c6572206973206e6f74206f60008201527f776e6572206e6f7220617070726f766564000000000000000000000000000000602082015250565b612a8d81612401565b8114612a9857600080fd5b50565b612aa481612413565b8114612aaf57600080fd5b50565b612abb8161241f565b8114612ac657600080fd5b50565b612ad28161246b565b8114612add57600080fd5b5056fea2646970667358221220c4eede933122ddd99ec1f76a2f0222bf1e6efa3bfabb289b391aad1d05345dc364736f6c63430008070033",
  "immutableReferences": {},
  "source": "pragma solidity ^0.8.0;\n\nimport \"@openzeppelin/contracts/token/ERC721/ERC721.sol\";\n\nimport \"@openzeppelin/contracts/utils/Counters.sol\";\n\ncontract MorarableToken is ERC721 {\n    using Counters for Counters.Counter;\n    Counters.Counter private  _tokenIds;\n\n    constructor() ERC721(\"MorarableToken\",\"Mora\") {}\n\n    struct Item{\n        uint256 id;\n        address creator;\n        string uri;\n    }\n\n    mapping (uint256 => Item) public Items;\n\n    function CreateItem(string memory uri) public returns (uint256) {\n        _tokenIds.increment();\n        uint256 newItemId = _tokenIds.current();\n        _safeMint(msg.sender, newItemId);\n\n        Items[newItemId] = Item(newItemId, msg.sender, uri);\n\n        return newItemId;\n    }\n}",
  "sourcePath": "/Users/jun/Desktop/frontend/contracts/contracts/MorarableToken.sol",
  "compiler": {
    "name": "solc",
    "version": "0.8.7+commit.e28d00a7.Emscripten.clang"
  },
  "schemaVersion": "3.4.3",
  "updatedAt": "2021-09-17T07:38:42.637Z",
  "networkType": "ethereum",
  "devdoc": {
    "kind": "dev",
    "methods": {
      "approve(address,uint256)": {
        "details": "See {IERC721-approve}."
      },
      "balanceOf(address)": {
        "details": "See {IERC721-balanceOf}."
      },
      "getApproved(uint256)": {
        "details": "See {IERC721-getApproved}."
      },
      "isApprovedForAll(address,address)": {
        "details": "See {IERC721-isApprovedForAll}."
      },
      "name()": {
        "details": "See {IERC721Metadata-name}."
      },
      "ownerOf(uint256)": {
        "details": "See {IERC721-ownerOf}."
      },
      "safeTransferFrom(address,address,uint256)": {
        "details": "See {IERC721-safeTransferFrom}."
      },
      "safeTransferFrom(address,address,uint256,bytes)": {
        "details": "See {IERC721-safeTransferFrom}."
      },
      "setApprovalForAll(address,bool)": {
        "details": "See {IERC721-setApprovalForAll}."
      },
      "supportsInterface(bytes4)": {
        "details": "See {IERC165-supportsInterface}."
      },
      "symbol()": {
        "details": "See {IERC721Metadata-symbol}."
      },
      "tokenURI(uint256)": {
        "details": "See {IERC721Metadata-tokenURI}."
      },
      "transferFrom(address,address,uint256)": {
        "details": "See {IERC721-transferFrom}."
      }
    },
    "version": 1
  },
  "userdoc": {
    "kind": "user",
    "methods": {},
    "version": 1
  }
}